{
    "contractName": "Crowdfunding",
    "abi": [
        {
            "inputs": [],
            "name": "campaignCount",
            "outputs": [
                {
                    "internalType": "uint256",
                    "name": "",
                    "type": "uint256"
                }
            ],
            "stateMutability": "view",
            "type": "function",
            "constant": true
        },
        {
            "inputs": [
                {
                    "internalType": "uint256",
                    "name": "",
                    "type": "uint256"
                }
            ],
            "name": "campaigns",
            "outputs": [
                {
                    "internalType": "address payable",
                    "name": "creator",
                    "type": "address"
                },
                {
                    "internalType": "string",
                    "name": "description",
                    "type": "string"
                },
                {
                    "internalType": "uint256",
                    "name": "goal",
                    "type": "uint256"
                },
                {
                    "internalType": "uint256",
                    "name": "pledged",
                    "type": "uint256"
                },
                {
                    "internalType": "bool",
                    "name": "completed",
                    "type": "bool"
                }
            ],
            "stateMutability": "view",
            "type": "function",
            "constant": true
        },
        {
            "inputs": [
                {
                    "internalType": "string",
                    "name": "_description",
                    "type": "string"
                },
                {
                    "internalType": "uint256",
                    "name": "_goal",
                    "type": "uint256"
                }
            ],
            "name": "createCampaign",
            "outputs": [],
            "stateMutability": "nonpayable",
            "type": "function"
        },
        {
            "inputs": [
                {
                    "internalType": "uint256",
                    "name": "_campaignId",
                    "type": "uint256"
                }
            ],
            "name": "donate",
            "outputs": [],
            "stateMutability": "payable",
            "type": "function",
            "payable": true
        },
        {
            "inputs": [
                {
                    "internalType": "uint256",
                    "name": "_campaignId",
                    "type": "uint256"
                }
            ],
            "name": "getCampaign",
            "outputs": [
                {
                    "internalType": "address",
                    "name": "creator",
                    "type": "address"
                },
                {
                    "internalType": "string",
                    "name": "description",
                    "type": "string"
                },
                {
                    "internalType": "uint256",
                    "name": "goal",
                    "type": "uint256"
                },
                {
                    "internalType": "uint256",
                    "name": "pledged",
                    "type": "uint256"
                },
                {
                    "internalType": "bool",
                    "name": "completed",
                    "type": "bool"
                }
            ],
            "stateMutability": "view",
            "type": "function",
            "constant": true
        }
    ],
    "bytecode": "0x60806040525f600155348015610013575f80fd5b50610e84806100215f395ff3fe608060405260043610610049575f3560e01c8063141961bc1461004d5780635598f8cc1461008d5780637274e30d146100cd578063f102a67c146100f7578063f14faf6f1461011f575b5f80fd5b348015610058575f80fd5b50610073600480360381019061006e91906105f4565b61013b565b604051610084959493929190610711565b60405180910390f35b348015610098575f80fd5b506100b360048036038101906100ae91906105f4565b61021d565b6040516100c4959493929190610789565b60405180910390f35b3480156100d8575f80fd5b506100e1610316565b6040516100ee91906107e1565b60405180910390f35b348015610102575f80fd5b5061011d60048036038101906101189190610926565b61031c565b005b610139600480360381019061013491906105f4565b61045a565b005b5f602052805f5260405f205f91509050805f015f9054906101000a900473ffffffffffffffffffffffffffffffffffffffff169080600101805461017e906109ad565b80601f01602080910402602001604051908101604052809291908181526020018280546101aa906109ad565b80156101f55780601f106101cc576101008083540402835291602001916101f5565b820191905f5260205f20905b8154815290600101906020018083116101d857829003601f168201915b505050505090806002015490806003015490806004015f9054906101000a900460ff16905085565b5f60605f805f805f808881526020019081526020015f209050805f015f9054906101000a900473ffffffffffffffffffffffffffffffffffffffff168160010182600201548360030154846004015f9054906101000a900460ff16838054610284906109ad565b80601f01602080910402602001604051908101604052809291908181526020018280546102b0906109ad565b80156102fb5780601f106102d2576101008083540402835291602001916102fb565b820191905f5260205f20905b8154815290600101906020018083116102de57829003601f168201915b50505050509350955095509550955095505091939590929450565b60015481565b5f811161035e576040517f08c379a000000000000000000000000000000000000000000000000000000000815260040161035590610a27565b60405180910390fd5b6040518060a001604052803373ffffffffffffffffffffffffffffffffffffffff1681526020018381526020018281526020015f81526020015f15158152505f8060015481526020019081526020015f205f820151815f015f6101000a81548173ffffffffffffffffffffffffffffffffffffffff021916908373ffffffffffffffffffffffffffffffffffffffff16021790555060208201518160010190816104089190610be2565b5060408201518160020155606082015181600301556080820151816004015f6101000a81548160ff02191690831515021790555090505060015f81548092919061045190610cde565b91905055505050565b5f805f8381526020019081526020015f2090505f34116104af576040517f08c379a00000000000000000000000000000000000000000000000000000000081526004016104a690610d95565b60405180910390fd5b806004015f9054906101000a900460ff1615610500576040517f08c379a00000000000000000000000000000000000000000000000000000000081526004016104f790610dfd565b60405180910390fd5b805f015f9054906101000a900473ffffffffffffffffffffffffffffffffffffffff1673ffffffffffffffffffffffffffffffffffffffff166108fc3490811502906040515f60405180830381858888f19350505050158015610565573d5f803e3d5ffd5b5034816003015f8282546105799190610e1b565b9250508190555080600201548160030154106105ac576001816004015f6101000a81548160ff0219169083151502179055505b5050565b5f604051905090565b5f80fd5b5f80fd5b5f819050919050565b6105d3816105c1565b81146105dd575f80fd5b50565b5f813590506105ee816105ca565b92915050565b5f60208284031215610609576106086105b9565b5b5f610616848285016105e0565b91505092915050565b5f73ffffffffffffffffffffffffffffffffffffffff82169050919050565b5f6106488261061f565b9050919050565b6106588161063e565b82525050565b5f81519050919050565b5f82825260208201905092915050565b5f5b8381101561069557808201518184015260208101905061067a565b5f8484015250505050565b5f601f19601f8301169050919050565b5f6106ba8261065e565b6106c48185610668565b93506106d4818560208601610678565b6106dd816106a0565b840191505092915050565b6106f1816105c1565b82525050565b5f8115159050919050565b61070b816106f7565b82525050565b5f60a0820190506107245f83018861064f565b818103602083015261073681876106b0565b905061074560408301866106e8565b61075260608301856106e8565b61075f6080830184610702565b9695505050505050565b5f6107738261061f565b9050919050565b61078381610769565b82525050565b5f60a08201905061079c5f83018861077a565b81810360208301526107ae81876106b0565b90506107bd60408301866106e8565b6107ca60608301856106e8565b6107d76080830184610702565b9695505050505050565b5f6020820190506107f45f8301846106e8565b92915050565b5f80fd5b5f80fd5b7f4e487b71000000000000000000000000000000000000000000000000000000005f52604160045260245ffd5b610838826106a0565b810181811067ffffffffffffffff8211171561085757610856610802565b5b80604052505050565b5f6108696105b0565b9050610875828261082f565b919050565b5f67ffffffffffffffff82111561089457610893610802565b5b61089d826106a0565b9050602081019050919050565b828183375f83830152505050565b5f6108ca6108c58461087a565b610860565b9050828152602081018484840111156108e6576108e56107fe565b5b6108f18482856108aa565b509392505050565b5f82601f83011261090d5761090c6107fa565b5b813561091d8482602086016108b8565b91505092915050565b5f806040838503121561093c5761093b6105b9565b5b5f83013567ffffffffffffffff811115610959576109586105bd565b5b610965858286016108f9565b9250506020610976858286016105e0565b9150509250929050565b7f4e487b71000000000000000000000000000000000000000000000000000000005f52602260045260245ffd5b5f60028204905060018216806109c457607f821691505b6020821081036109d7576109d6610980565b5b50919050565b7f476f616c2073686f756c642062652067726561746572207468616e20300000005f82015250565b5f610a11601d83610668565b9150610a1c826109dd565b602082019050919050565b5f6020820190508181035f830152610a3e81610a05565b9050919050565b5f819050815f5260205f209050919050565b5f6020601f8301049050919050565b5f82821b905092915050565b5f60088302610aa17fffffffffffffffffffffffffffffffffffffffffffffffffffffffffffffffff82610a66565b610aab8683610a66565b95508019841693508086168417925050509392505050565b5f819050919050565b5f610ae6610ae1610adc846105c1565b610ac3565b6105c1565b9050919050565b5f819050919050565b610aff83610acc565b610b13610b0b82610aed565b848454610a72565b825550505050565b5f90565b610b27610b1b565b610b32818484610af6565b505050565b5b81811015610b5557610b4a5f82610b1f565b600181019050610b38565b5050565b601f821115610b9a57610b6b81610a45565b610b7484610a57565b81016020851015610b83578190505b610b97610b8f85610a57565b830182610b37565b50505b505050565b5f82821c905092915050565b5f610bba5f1984600802610b9f565b1980831691505092915050565b5f610bd28383610bab565b9150826002028217905092915050565b610beb8261065e565b67ffffffffffffffff811115610c0457610c03610802565b5b610c0e82546109ad565b610c19828285610b59565b5f60209050601f831160018114610c4a575f8415610c38578287015190505b610c428582610bc7565b865550610ca9565b601f198416610c5886610a45565b5f5b82811015610c7f57848901518255600182019150602085019450602081019050610c5a565b86831015610c9c5784890151610c98601f891682610bab565b8355505b6001600288020188555050505b505050505050565b7f4e487b71000000000000000000000000000000000000000000000000000000005f52601160045260245ffd5b5f610ce8826105c1565b91507fffffffffffffffffffffffffffffffffffffffffffffffffffffffffffffffff8203610d1a57610d19610cb1565b5b600182019050919050565b7f446f6e6174696f6e2073686f756c642062652067726561746572207468616e205f8201527f3000000000000000000000000000000000000000000000000000000000000000602082015250565b5f610d7f602183610668565b9150610d8a82610d25565b604082019050919050565b5f6020820190508181035f830152610dac81610d73565b9050919050565b7f43616d706169676e20616c726561647920636f6d706c657465640000000000005f82015250565b5f610de7601a83610668565b9150610df282610db3565b602082019050919050565b5f6020820190508181035f830152610e1481610ddb565b9050919050565b5f610e25826105c1565b9150610e30836105c1565b9250828201905080821115610e4857610e47610cb1565b5b9291505056fea2646970667358221220de3a197b69c943acb064f1c07577d5576db0a001b09b12e5901b385e6395df8764736f6c63430008150033",
    "immutableReferences": {},
    "source": "// SPDX-License-Identifier: MIT\r\npragma solidity ^0.8.0;\r\n\r\ncontract Crowdfunding {\r\n    struct Campaign {\r\n        address payable creator;\r\n        string description;\r\n        uint goal;\r\n        uint pledged;\r\n        bool completed;\r\n    }\r\n\r\n    mapping(uint => Campaign) public campaigns;\r\n    uint public campaignCount = 0;\r\n\r\n    function createCampaign(string memory _description, uint _goal) public {\r\n        require(_goal > 0, \"Goal should be greater than 0\");\r\n\r\n        campaigns[campaignCount] = Campaign({\r\n            creator: payable(msg.sender),\r\n            description: _description,\r\n            goal: _goal,\r\n            pledged: 0,\r\n            completed: false\r\n        });\r\n\r\n        campaignCount++;\r\n    }\r\n\r\n    function donate(uint _campaignId) public payable {\r\n        Campaign storage campaign = campaigns[_campaignId];\r\n        require(msg.value > 0, \"Donation should be greater than 0\");\r\n        require(!campaign.completed, \"Campaign already completed\");\r\n\r\n        campaign.creator.transfer(msg.value);\r\n        campaign.pledged += msg.value;\r\n\r\n        if (campaign.pledged >= campaign.goal) {\r\n            campaign.completed = true;\r\n        }\r\n    }\r\n\r\n    function getCampaign(uint _campaignId) public view returns (\r\n        address creator,\r\n        string memory description,\r\n        uint goal,\r\n        uint pledged,\r\n        bool completed\r\n    ) {\r\n        Campaign storage campaign = campaigns[_campaignId];\r\n        return (\r\n            campaign.creator,\r\n            campaign.description,\r\n            campaign.goal,\r\n            campaign.pledged,\r\n            campaign.completed\r\n        );\r\n    }\r\n}\r\n",
    "sourcePath": "E:\\Mini-Project-2\\crowdfunding\\crowdfunding-dapp\\contracts\\Crowdfunding.sol",
    "compiler": {
        "name": "solc",
        "version": "0.8.21+commit.d9974bed.Emscripten.clang"
    },
    "schemaVersion": "3.4.16",
    "updatedAt": "2024-07-12T10:04:20.473Z",
    "networkType": "ethereum",
    "devdoc": {
        "kind": "dev",
        "methods": {},
        "version": 1
    },
    "userdoc": {
        "kind": "user",
        "methods": {},
        "version": 1
    }
}